:10000000A0C00000BAC00000B8C00000B6C0000028
:10001000B4C00000B2C00000B0C00000AEC000001C
:10002000ACC00000AAC000001DC60000E6C600006B
:10003000A4C00000A2C00000A0C000009EC000003C
:100040009CC000009AC0000098C0000096C000004C
:1000500094C0000053C2000090C000008EC0000099
:100060008CC000008AC0000088C0000086C000006C
:1000700084C0000082C0000080C000007EC000007C
:100080007CC000007AC0000078C0000076C000008C
:1000900074C0000072C0000070C000006EC000009C
:1000A0006CC000006AC0000068C0000026034C005D
:1000B00055004600410020004400750061006C00BE
:1000C00020004300440043002000440065006D0010
:1000D0006F00000018034400650061006E002000FE
:1000E000430061006D0065007200610000000403C0
:1000F000090409023E00020100C0320904000001A7
:100100000202010005240010010424020605240651
:100110000001070582030800FF09040100020A002C
:100120000000070504021000050705830210000502
:1001300012011001EF020108EB034E200100010241
:10014000DC0111241FBECFEFDAE0DEBFCDBF11E02E
:10015000A0E0B1E0ECEEFFE102C005900D92AC3CF6
:10016000B107D9F722E0ACECB1E001C01D92AC348C
:10017000B207E1F740D30C94F40F42CF0895FC018D
:10018000A081B1818C91948141E050E09A0101C03D
:10019000220F9A95EAF7209528232C93A281B38108
:1001A0008C91948101C0440F9A95EAF7482B4C93A7
:1001B0000895FC01A8E6B0E08C9181608C93ABE6D9
:1001C000B0E08C91908121E030E001C0220F9A953F
:1001D000EAF7822B8C9381E0828381819091CC011C
:1001E000982B9093CC0193B1892383830895FC01CC
:1001F000672B19F0558344830895578346830895E8
:10020000CF93DF9383B19091CC018923EFE3FCE995
:100210003197F1F700C00000C3B19091CC01C92320
:10022000C8132CC080910A01882399F0DC2FD87064
:1002300080910B01D81759F0E0910E01F0910F0158
:10024000DD2321F0E0910C01F0910D010995D0938F
:100250000B0180910201882389F08C2F817090918D
:100260000301981741F081110CC0E0910601F09153
:1002700007010995C0E0C170C0930301DF91CF91E0
:100280000895E0910401F09105010995C1E0F3CFD3
:10029000DC011596ED91FC911697908114968C9146
:1002A00021E030E001C0220F8A95EAF79223908383
:1002B00021E030E0992311F030E020E0C9010895F9
:1002C000DC01ED91FC911197908114968C9121E0C5
:1002D00030E001C0220F8A95EAF7892F822B8083B4
:1002E00008958530910529F18730910591F0892B8A
:1002F00079F487E0E9E3F1E0A3EEB1E001900D923B
:100300008A95E1F783EE91E0DBDF81E08093CE0117
:10031000089587E0E0E4F1E0A1EFB1E001900D92F3
:100320008A95E1F781EF91E0CBDF81E08093CF0107
:10033000089587E0E7E4F1E0AAEEB1E001900D92C4
:100340008A95E1F78AEE91E0BBDF81E08093CD01F1
:100350000895DC011296ED91FC91139714962C915F
:1003600081E090E001C0880F2A95EAF79081672B21
:1003700019F4892B8083089580958923FBCFDC01B4
:100380001296ED91FC91139714962C9181E090E0D8
:1003900001C0880F2A95EAF79081672B19F0892B05
:1003A0008083089580958923FBCFDC011296ED911F
:1003B000FC911397908114968C9121E030E001C05C
:1003C000220F8A95EAF7892F822780830895FC01FE
:1003D000A281B381848121E030E001C0220F8A959F
:1003E000EAF78C91672B09F5282B2C932FEF84E3E8
:1003F0009CE0215080409040E1F700C00000A281C5
:10040000B3818C91948121E030E001C0220F9A9554
:10041000EAF782278C932FEF84E39CE02150804001
:100420009040E1F700C00000089520952823DDCF1B
:10043000CF93DF93C2E0D0E08091CF01882329F0F1
:1004400070E060E081EF91E0C2DF8091CE0188230F
:1004500029F061E070E083EE91E0B9DF8091CD0199
:10046000882329F061E070E08AEE91E0B0DF219707
:1004700019F4DF91CF910895C1E0D0E0DDCF85E0A0
:1004800090E02FDF87E090E02CDFE3E1F2E01082E4
:1004900011821282138214821582168217821086AC
:1004A000E8EFF1E010821182128213821482158229
:1004B000168217821086ECE1F2E01182128213821A
:1004C00014821582168217821086E1E0F2E0108213
:1004D000118212821382148215821682178210866C
:1004E000EAE0F2E0108211821282138214821582F5
:1004F0001682178210862DD39BCF08951F920F92DC
:100500000FB60F9211248F939F9380913202909196
:100510003302019690933302809332029F918F9120
:100520000F900FBE0F901F90189583B190E09C0123
:1005300044E0359527954A95E1F7217055E095956A
:1005400087955A95E1F78170609134027091350278
:100550004091370250913802261751F06091D30133
:100560007091D4016F5F7F4F7093D4016093D3017A
:10057000481751F04091D3015091D4014150510995
:100580005093D4014093D30130E040913702509111
:10059000380290E02417350771F0409134025091F1
:1005A00035024817590739F041E04093D2014BB169
:1005B00050E245274BB9309338022093370290938D
:1005C000350280933402089508951092D80084B5BE
:1005D000826084BD85B5836085BD8AEF87BDEEE608
:1005E000F0E08081826080830895089580911402F4
:1005F00090911502A0911602B0911702892B8A2BB7
:100600008B2BF9F481E08093130280913202909158
:100610003302409118025091190260911A027091B0
:100620001B02092E000CAA0BBB0B840F951FA61FE3
:10063000B71F8093140290931502A0931602B093F3
:1006400017028091F9019091FA01A091FB01B091FC
:10065000FC01892B8A2B8B2BF9F481E08093F80124
:1006600080913202909133024091FD015091FE0140
:100670006091FF0170910002092E000CAA0BBB0BC8
:10068000840F951FA61FB71F8093F9019093FA015D
:10069000A093FB01B093FC0180911D0290911E027A
:1006A000A0911F02B0912002892B8A2B8B2B51F530
:1006B00087E191E0EDDD892B49F08091D0019091A7
:1006C000D10101969093D1018093D00180913202A3
:1006D00090913302409121025091220260912302B5
:1006E00070912402092E000CAA0BBB0B840F951FDE
:1006F000A61FB71F80931D0290931E02A0931F0296
:10070000B09320028091020290910302A091040212
:10071000B0910502892B8A2B8B2BF9F481E0809311
:100720000102809132029091330240910602509171
:1007300007026091080270910902092E000CAA0BB1
:10074000BB0B840F951FA61FB71F809302029093C7
:100750000302A0930402B093050280910B029091D2
:100760000C02A0910D02B0910E02892B8A2B8B2BCB
:10077000F9F481E080930A02809132029091330271
:1007800040910F025091100260911102709112027B
:10079000092E000CAA0BBB0B840F951FA61FB71FB9
:1007A00080930B0290930C02A0930D02B0930E0263
:1007B000089590917C00907E90937C0090917B00B6
:1007C000883098F0906290937B0090917C008850E4
:1007D000892B80937C0080917A00806480937A00DA
:1007E00080917A0086FDFCCF08959F7D90937B00D9
:1007F00090917C00EDCFA4E0B0E0E1E0F4E00C9457
:10080000170C1092D8003BDEE0DEA3D17894F89468
:1008100080913202909133029093260280932502B8
:10082000789419821A821B821C8289819A81AB81F9
:10083000BC81803A9648A140B10508F451C1F894B2
:100840008091320290913302909328028093270284
:100850000091270210912802809125029091260292
:10086000081B190BB801012E000C880B990B0E9474
:10087000CB0C6B017C013FEF83E294EF3150804061
:100880009040E1F700C0000080912702909128027B
:100890009F938F938EE491E09F938F930E94570DC7
:1008A00080912502909126029F938F938BE591E092
:1008B0009F938F930E94570D809132029091330243
:1008C0009093260280932502789419821A821B82C3
:1008D0001C820FB6F894DEBF0FBECDBF89819A810E
:1008E000AB81BC81803A9648A140B10508F405C1AE
:1008F000F894809132029091330290932802809371
:100900002702609127027091280280912502909120
:100910002602681B790B072E000C880B990B0E948E
:10092000CB0C60932E0270932F0280933002909331
:10093000310260912E0270912F02809130029091CD
:100940003102A70196018FD76093290270932A0282
:1009500080932B0290932C024090290250902A02FF
:1009600060902B0270902C02A0903202B090330263
:10097000789419821A821B821C8289819A81AB81A8
:10098000BC81803A9648A140B10508F4C3C0F894F0
:1009900060913202709133026A197B09072E000CB4
:1009A000880B990BF8D7A70196015DD74B015C0125
:1009B0002090320230903302789419821A821B827E
:1009C0001C8289819A81AB81BC81803A9648A14082
:1009D000B10508F4ACC0F894609132027091330212
:1009E00062197309072E000C880B990BD4D7A70145
:1009F000960139D76B017C017894A7D060912E02C3
:100A000070912F02809130029091310291D77F93A3
:100A10006F938BE691E09F938F930E94570D1F93E6
:100A20000F9385E691E09F938F930E94570D6091FD
:100A3000290270912A0280912B0290912C0278D782
:100A40009F938F937F936F9386E791E09F938F930C
:100A50000E94570D78940FB6F894DEBF0FBECDBF3D
:100A600085E6282E81E0382E70D09AEA26EE36E907
:100A700081E09150204030408040D9F700001F9322
:100A80000F933F922F920E94570DC301B20150D78E
:100A90009F938F937F936F9327E831E03F932F933A
:100AA0000E94570DC501B40143D79F938F937F9345
:100AB0006F932BE931E03F932F93F9D7C701B6012C
:100AC00037D79F938F937F936F9321EB31E03F93C1
:100AD0002F93EDD70FB6F894DEBF0FBECDBFC4CFB6
:100AE000000089819A81AB81BC810196A11DB11D55
:100AF00089839A83AB83BC8398CE17DD89819A81E1
:100B0000AB81BC810196A11DB11D89839A83AB8302
:100B1000BC83E4CE6BDD89819A81AB81BC81019677
:100B2000A11DB11D89839A83AB83BC8326CF89E045
:100B300040DE89819A81AB81BC810196A11DB11DE6
:100B400089839A83AB83BC833CCF8EE191E093D3BE
:100B5000EAC284B7877F84BF88E10FB6F894809398
:100B60006000109260000FBE90E080E80FB6F8942D
:100B700080936100909361000FBE57D065ED71E0E6
:100B80008EE191E0CCD3E6E4F2E085ED91E0938351
:100B90008283918380830895089508958EE191E082
:100BA000DCC28EE191E0CFC308950F931F93CF93E2
:100BB000DF934BD052D0C8EDD0E088818F77888307
:100BC00088818068888388818F7D888319BC109292
:100BD0003D021092390210923B0210923A0200EE4E
:100BE00010E0F80180818B7F808388818160888319
:100BF00042E060E080E04DD5E1EEF0E080818E7F64
:100C00008083E2EEF0E08081816080838081886073
:100C10008083F80180818E7F8083888180618883D2
:100C2000DF91CF911F910F910895E8EDF0E0808161
:100C30008F7E8083E7EDF0E080818160808384E0B7
:100C400082BF81E080933C02B0CFE8EDF0E080818C
:100C50008E7F80831092E20008951092DA00109245
:100C6000E10008951F920F920FB60F9211242F9357
:100C70003F934F935F936F937F938F939F93AF9324
:100C8000BF93EF93FF938091E10082FF0AC08091B0
:100C9000E20082FF06C08091E1008B7F8093E1003B
:100CA00041D28091DA0080FF1DC08091D80080FF82
:100CB00019C08091DA008E7F8093DA008091D9008C
:100CC00080FF0CC080E189BD82E189BD09B400FECE
:100CD000FDCF81E080933D025FDF04C019BC10921C
:100CE0003D025BDF8091E10080FF18C08091E2004F
:100CF00080FF14C08091E2008E7F8093E20080919B
:100D0000E20080618093E2008091D800806280934D
:100D1000D80019BC85E080933D0204D28091E100A7
:100D200084FF2FC08091E20084FF2BC080E189BD49
:100D300082E189BD09B400FEFDCF8091D8008F7D8E
:100D40008093D8008091E1008F7E8093E1008091B4
:100D5000E2008F7E8093E2008091E20081608093C8
:100D6000E20080913902882311F084E007C080916D
:100D7000E30087FD02C081E001C083E080933D0273
:100D8000D1D18091E10083FF27C08091E20083FFF1
:100D900023C08091E100877F8093E10082E080930F
:100DA0003D02109239028091E1008E7F8093E10034
:100DB0008091E2008E7F8093E2008091E20080616A
:100DC0008093E20042E060E080E063D48091F00034
:100DD00088608093F000A6D1FF91EF91BF91AF9111
:100DE0009F918F917F916F915F914F913F912F9143
:100DF0000F900FBE0F901F9018951F920F920FB675
:100E00000F9211242F933F934F935F936F937F9390
:100E10008F939F93AF93BF93CF93DF93EF93FF9302
:100E2000C091E900CF708091EC00D82FD17080FD87
:100E3000D0E81092E9008091F000877F8093F00065
:100E400078941ED01092E9008091F0008860809321
:100E5000F000CD2BCF70C093E900FF91EF91DF91AF
:100E6000CF91BF91AF919F918F917F916F915F9142
:100E70004F913F912F910F900FBE0F901F9018959B
:100E80001F93CF93DF93CDB7DEB7AA970FB6F89431
:100E9000DEBF0FBECDBFEEE3F2E088E08E0F909193
:100EA000F10091938E13FBCF7CDE8091E80083FFED
:100EB00021C180913E0290913F02953009F478C0A3
:100EC00030F4913081F168F0933069F113C19830BA
:100ED00009F4E2C0993009F4F1C0963009F00AC172
:100EE00089C0803881F0823809F004C180914202C3
:100EF0008F708093E9008091EB0085FB882780F953
:100F00001092E90006C080913A0290913B02911143
:100F100082609091E800977F9093E8008093F100C1
:100F20001092F100C4C0282F2D7F09F0E3C0882360
:100F300019F0823061F0DEC080914002813009F00A
:100F4000D9C0933009F080E080933B022BC08091A0
:100F50004002811127C0809142028F7009F4CAC0FB
:100F60008093E9002091EB0020FF1CC0933021F416
:100F70008091EB00806214C09091EB00906190939F
:100F8000EB0021E030E0A90102C0440F551F8A9513
:100F9000E2F74093EA001092EA008091EB0088604B
:100FA0008093EB001092E9008091E800877F82C077
:100FB0008111A0C0109140021F778091E3008078DA
:100FC000812B8093E3008091E800877F8093E80085
:100FD000DDD38091E80080FFFCCF8091E300806842
:100FE0008093E300111102C082E001C083E080938E
:100FF0003D0280C08058823008F07CC08091400261
:10100000909141028C3D53E0950771F583E08A830E
:101010008AE289834FB7F894DE01139620E03EE020
:1010200051E2E32FF0E050935700E49120FF03C01A
:10103000E295EF703F5FEF708E2F90E0EA3010F096
:10104000C79601C0C0968D939D932F5F243149F7B9
:101050004FBF8091E800877F8093E8006AE270E0EC
:10106000CE01019652D212C0AE014F5F5F4F609128
:10107000420219D2BC01892B09F43CC09091E800CE
:10108000977F9093E80089819A81A2D28091E800AD
:101090008B778093E8002EC0803861F58091E8005E
:1010A000877F8093E800809139028093F1008091DE
:1010B000E8008E778093E80069D31CC081111AC0C4
:1010C000909140029230B0F48091E800877F809345
:1010D000E800909339025AD380913902811106C0F9
:1010E0008091E30087FD02C081E001C084E080932D
:1010F0003D0254DD8091E80083FF0AC08091E80042
:10110000877F8093E8008091EB0080628093EB0002
:10111000AA960FB6F894DEBF0FBECDBFDF91CF9178
:101120001F9108950895CF9380913D02882399F0EF
:10113000C091E900CF709091EC00892F817090FDF3
:1011400080E8C82B1092E9008091E80083FD98DECA
:10115000CF70C093E900CF910895CF93DF93EC0156
:10116000FC0170968BE0DF011D928A95E9F782E021
:101170008C83898783E08E8761E0CE010196BED2A1
:10118000882361F061E0CE010696B8D2882331F061
:1011900061E0CE010B96DF91CF91B0C280E0DF918C
:1011A000CF9108950F931F93CF9320913D02243048
:1011B000F9F4FC010489158926893789012B022B52
:1011C000032BB1F0C62F81818F708093E90080914D
:1011D000E80085FF04C0C093F10080E00AC0809160
:1011E000E8008E778093E800F0D28823A1F301C055
:1011F00082E0CF911F910F910895FB01682F8485A4
:101200009585D0DF21E030E0811102C020E030E0A0
:1012100088279927821B930B089520913D02243043
:1012200041F5FC014489558966897789452B462B10
:10123000472BF9F081818F708093E9002091F300B2
:101240008091F20090E0922B892B89F09091E80038
:101250008091E8008E778093E80095FD08C0B5D2B4
:10126000811108C08091E8008E778093E80080E0CB
:10127000089582E0089520913D02243089F4FC0114
:101280004489558966897789452B462B472B41F040
:1012900021812F702093E9002091E80020FDBDCF2F
:1012A000089520913D02243019F08FEF9FEF0895AB
:1012B000FC014489558966897789452B462B472B44
:1012C000A1F386818F708093E9008091E80082FF0E
:1012D000ECCF2091F3008091F20090E0922B892BCB
:1012E00021F02091F10030E002C02FEF3FEF40915C
:1012F000F3008091F20090E0942B892B29F48091E7
:10130000E8008B778093E800C9010895FC0184858B
:101310009585C7DF97FF02C08EEF9FEF0895FB0111
:101320002EE0DB011D922A95E9F723E023832DEFC0
:1013300038E03187208726E839E033872287958790
:10134000848708950895CF93DF93EC018091E8009E
:1013500083FFA6C0888190E0209142023091430231
:101360002817390709F09CC080913F02813261F053
:1013700020F4803209F43EC093C0823209F46CC07C
:10138000833209F47DC08CC080913E02813A09F01D
:1013900087C08091E800877F8093E8008091E80013
:1013A00080FFFCCF8C899D89AE89BF898093F10035
:1013B000492F5A2F6B2F77274093F100AD016627F5
:1013C00077274093F1008B2F9927AA27BB2780937B
:1013D000F100888D8093F100898D8093F1008A8DD2
:1013E0008093F1008091E8008E778093E800DF9190
:1013F000CF91CCC180913E02813209F051C08091E1
:10140000E800877F8093E8008091E80082FD05C0B6
:1014100080913D028111F8CF43C03091F1002091BD
:10142000F1009091F1008091F1003C8B2D8B9E8B0F
:101430008F8B8091F100888F8091F100898F80914E
:10144000F1008A8F8091E8008B778093E8009ED12D
:10145000CE01DF91CF9176CF80913E02813201F5AE
:101460008091E800877F8093E80090D180914002CE
:1014700090914102998B888BCE01DF91CF9194CBD3
:1014800080913E02813261F48091E800877F8093F1
:10149000E8007CD160914002CE01DF91CF9152CF24
:1014A000DF91CF910895292F33272230310559F04C
:1014B0002330310569F021303105F9F482E190E003
:1014C00020E331E01EC08EE390E022EF30E019C04F
:1014D00099278130910541F08230910541F0892BA7
:1014E00061F4EEEEF0E005C0E4EDF0E002C0ECEAFD
:1014F000F0E0849190E09F0104C080E090E020E063
:1015000030E0FA0131832083089520914402309124
:1015100045022617370748F06115710539F4209107
:10152000E8002E772093E80001C0B90140E0611582
:101530007105A9F120913D02222309F443C0253011
:1015400009F442C02091E80023FD40C02091E8004A
:1015500022FD32C02091E80020FFE9CF4091F30046
:101560002091F20030E0342BFC01CF0161157105B0
:1015700059F02830310540F481918093F100615099
:1015800071092F5F3F4FF1CF41E02830310509F05D
:1015900040E02091E8002E772093E800C8CF411169
:1015A000C9CF0AC080913D02882361F0853061F087
:1015B0008091E80083FD0AC08091E80082FFF2CFAD
:1015C00080E0089582E0089583E0089581E0089521
:1015D00020914402309145022617370748F06115E3
:1015E000710539F42091E8002E772093E80001C0BE
:1015F000B901FC0120E06115710591F180913D0276
:10160000882309F440C0853009F43FC08091E80088
:1016100083FD3DC08091E80082FD2FC08091E800ED
:1016200080FFE9CF2091F3008091F20090E0922BAF
:101630006115710559F08830910540F4249120938B
:10164000F1003196615071090196F2CF21E00897BF
:1016500009F020E08091E8008E778093E800CBCFFE
:101660002111CCCF0AC080913D02882361F08530E2
:1016700061F08091E80083FD0AC08091E80082FF5C
:10168000F2CF80E0089582E0089583E0089581E03C
:101690000895982F973058F59093E900981739F0EE
:1016A0007091EC002091ED005091F00003C0242FC8
:1016B000762F50E021FF19C03091EB003E7F309330
:1016C000EB003091ED003D7F3093ED003091EB0069
:1016D00031603093EB007093EC002093ED00509359
:1016E000F0002091EE0027FF07C09F5FD3CF8F70DF
:1016F0008093E90081E0089580E00895EF92FF92E1
:101700000F931F93CF93DF93E62EEC018C010C5FB8
:101710001F4FF12CFE1491F15881552351F1F8011E
:10172000208169817A8131979081852F8F708730F0
:1017300010F080E024C0223010F442E001C046E006
:10174000E8E0F0E020E0E617F70720F42F5FEE0F67
:10175000FF1FF9CF2295207F422BF0E49F9F90013D
:101760001124551F5527551F652F622B92DF8823A3
:1017700001F3F39425960B5F1F4FCCCF81E0DF91EF
:10178000CF911F910F91FF90EF90089580913E02AD
:1017900087FF11C08091E80082FD05C080913D0265
:1017A0008111F8CF11C08091E8008B770BC0809138
:1017B0003D02882349F08091E80080FFF8CF8091B6
:1017C000E8008E778093E80008952091E40030913E
:1017D000E50095E64091EC00842F817040FF22C027
:1017E0008091E80080FD1CC080913D02882391F02B
:1017F000853091F08091EB0085FD10C04091E400B0
:101800005091E5004217530729F39A01915011F7BF
:1018100084E0089582E0089583E0089581E00895CA
:1018200080E008954091E80042FFDECF08952F92B6
:101830003F924F925F926F927F928F929F92AF9260
:10184000BF92CF92DF92EF92FF920F931F93CF93AD
:10185000DF93CDB7DEB7CA1BDB0B0FB6F894DEBF44
:101860000FBECDBF09945058BB27AA270ED0E5C0A4
:10187000D6D030F0DBD020F031F49F3F11F41EF4CD
:10188000CBC00EF4E095E7FBC1C0E92FE7D080F3B1
:10189000BA17620773078407950718F071F49EF56D
:1018A000FFC00EF4E0950B2EBA2FA02D0B01B9014D
:1018B00090010C01CA01A0011124FF27591B99F0C6
:1018C000593F50F4503E68F11A16F040A22F232FD2
:1018D000342F4427585FF3CF469537952795A79522
:1018E000F0405395C9F77EF41F16BA0B620B730BC9
:1018F000840BBAF09150A1F0FF0FBB1F661F771F3A
:10190000881FC2F70EC0BA0F621F731F841F48F4EE
:10191000879577956795B795F7959E3F08F0B3CF74
:101920009395880F08F09927EE0F9795879508955E
:1019300004D06894B111B5C0089598D088F09F572D
:1019400090F0B92F9927B751A0F0D1F0660F771F0B
:10195000881F991F1AF0BA95C9F712C0B13081F0EB
:101960009FD0B1E008959CC0672F782F8827B85F7B
:1019700039F0B93FCCF3869577956795B395D9F74C
:101980003EF490958095709561957F4F8F4F9F4F56
:101990000895E89409C097FB3EF490958095709562
:1019A00061957F4F8F4F9F4F9923A9F0F92F96E9AB
:1019B000BB279395F695879577956795B795F11120
:1019C000F8CFFAF4BB0F11F460FF1BC06F5F7F4FBD
:1019D0008F4F9F4F16C0882311F096E911C07723CF
:1019E00021F09EE8872F762F05C0662371F096E8D8
:1019F000862F70E060E02AF09A95660F771F881FA7
:101A0000DAF7880F9695879597F9089597F99F6764
:101A100080E870E060E008959FEF80EC0895002476
:101A20000A941616170618060906089500240A9443
:101A300012161306140605060895092E0394000CC9
:101A400011F4882352F0BB0F40F4BF2B11F460FF58
:101A500004C06F5F7F4F8F4F9F4F089557FD905881
:101A6000440F551F59F05F3F71F04795880F97FB62
:101A7000991F61F09F3F79F087950895121613061C
:101A80001406551FF2CF4695F1DF08C0161617064B
:101A90001806991FF1CF8695710561050894089580
:101AA000E894BB2766277727CB0197F90895B0E024
:101AB000A0E0ECE5FDE0CBCEAE014B5F5F4FFA015D
:101AC00061917191AF01809148029091490202D0D9
:101AD000E2E07FC2ABE0B0E0EFE6FDE0A8CE7C0143
:101AE0003B018A01FC0117821682838181FFBAC102
:101AF000CE0101965C01F7019381F30193FD85917D
:101B000093FF81913F01882309F449C1853239F45B
:101B100093FD859193FF81913F01853221F4B701B7
:101B200090E0B9D1E8CF912C212C312CFFE1F315B5
:101B300038F08B3211F190F4803209F1833229F1BF
:101B400037FC3CC020ED280F2A3050F536FE20C06F
:101B50008AE0989E200D1124922E06C08D3291F0BD
:101B6000803371F7689430F8F30193FD859193FF0A
:101B700081913F018111DACF21C0689431F86894D6
:101B800032F8F2CF689433F8EFCF689434F8ECCFA2
:101B9000EAE02E9E200D1124222E689435F8E4CF21
:101BA0008E3229F436FCFBC0689436F8DDCF8C36D3
:101BB00019F4689437F8D8CF8836B1F2982F9F7D02
:101BC00095549330D8F0833691F18337B1F1833552
:101BD00009F05EC02801F2E04F0E511CF801C080F0
:101BE000D180692D70E036FC02C06FEF7FEFC60137
:101BF0003CD14C01689437F882010AC00C5F1F4F3A
:101C0000FFE3F98388248394912C6501E89437F8E5
:101C100033FE2AC0522C8114910459F5552009F441
:101C20006ACFB70180E290E036D15A94F7CFF8013D
:101C3000808189830E5F1F4FE5CF2801F2E04F0EB0
:101C4000511CF801C080D180692D70E036FC02C0C3
:101C50006FEF7FEFC60114D14C018201D7CFB701DE
:101C600080E290E018D12A942814190409F0B8F7FA
:101C7000D1CFF60137FC859137FE81916F01B70115
:101C800090E009D151105A94F1E08F1A9108C3CF16
:101C9000843619F0893609F073C0F80137FE67C041
:101CA00060817181828193810C5F1F4FF32DFF76DC
:101CB0003F2E97FF09C090958095709561957F4F55
:101CC0008F4F9F4F689437F82AE030E0A50113D179
:101CD000C82ECA188C2C432C36FE0CC0E89440F851
:101CE000C91440F434FE05C032FC03C0F32DFE7E5F
:101CF0004F2E892C44FE90C0FE01EC0DF11D808119
:101D0000803309F082C0242D297E422E842D8870D4
:101D1000582E43FC8FC040FE89C09C2C821418F4BE
:101D20002C0C922C981844FE8BC0B70180E390E0F5
:101D3000B2D042FE08C088E790E041FE02C088E5CC
:101D400090E0B701A8D0C91408F486C0CA94D12C79
:101D50009FEFC91AD90ACA0CDB1CF60182916F01E8
:101D6000B70190E098D0AC14BD04B9F757CF6081AB
:101D70007181072E000C880B990B0E5F1F4F96CFB9
:101D8000D32CE894D4F82AE030E0853731F1232DC4
:101D9000297FD22E8F36F9F040F48835A1F0F70173
:101DA000868197812B96E2E104C1803749F088371C
:101DB000B1F7D4FE02C06894D2F820E130E00DC043
:101DC0006894D4F8F6CF34FE03C0822F8660D82EF4
:101DD00020E132E002C028E030E0F801D7FE0EC07A
:101DE00060817181828193810C5F1F4FA50183D037
:101DF000C82ECA183D2CE89437F86CCF60817181E9
:101E000090E080E00E5F1F4FF1CF42FC02C0839450
:101E10007DCF839483947ACF842D867809F476CF0E
:101E2000F6CFB70180E290E036D083948214C8F3F5
:101E3000512C79CF522C5818821408F474CFF8CF53
:101E4000842D867809F47FCF8BE241FE80E247FC47
:101E50008DE2B70190E076CFB70180E390E01BD030
:101E60009A9471CF8FEF9FEF9DCFFC010590615049
:101E700070400110D8F7809590958E0F9F1F0895A0
:101E8000FC016150704001900110D8F78095909549
:101E90008E0F9F1F08950F931F93CF93DF93182FDB
:101EA000092FEB018B8181FD09C01FEF0FEF812FFF
:101EB000902FDF91CF911F910F91089582FF14C051
:101EC0002E813F818C819D81281739073CF4E88160
:101ED000F981CF0101969983888310838E819F8138
:101EE00001969F838E83E3CFE885F985812F09953D
:101EF000892BA1F3DACFFA01AA27283051F120313A
:101F000081F1E8946F936E7F6E5F7F4F8F4F9F4F8D
:101F1000AF4FB1E03ED0B4E03CD0670F781F891FCF
:101F20009A1FA11D680F791F8A1F911DA11D6A0F9D
:101F3000711D811D911DA11D20D009F468943F9150
:101F40002AE0269F11243019305D3193DEF6CF014F
:101F50000895462F4770405D4193B3E00FD0C9F715
:101F6000F6CF462F4F70405D4A3318F0495D31FD82
:101F70004052419302D0A9F7EACFB4E0A6959795D5
:101F8000879577956795BA95C9F7009761057105AB
:101F900008959B01AC010A2E0694579547953795F5
:101FA0002795BA95C9F7620F731F841F951FA01D4F
:101FB00008952A88398848885F846E847D848C845B
:101FC0009B84AA84B984C884DF80EE80FD800C8164
:101FD0001B81AA81B981CE0FD11D0FB6F894DEBF47
:0C1FE0000FBECDBFED010895F894FFCFB7
:101FEC0000010001BE00BE0003080008BE00BE00D8
:101FFC002400250000230024002500032300008377
:10200C001000000104100000018208000001000013
:10201C000000000000000000002400250000230048
:10202C00270028000726002A002B000529006669D6
:10203C006E697368202564200A0D006E6F77202569
:10204C0064200A0D00656D7074795F776365742088
:10205C002564200A0D0077636574466C6F617420EB
:10206C00256C64200A0D00776365745F656E636F81
:10207C0064657220256C64200A0D00776365745FBB
:10208C007363686564756C657220256C64200A0D39
:10209C0000776365745F706F74656E74696F6D65DE
:0C20AC0074657220256C64200A0D000091
:00000001FF
